:020000040800F2
:10000000F8FF012049640908E5640908D15F050883
:10001000E5640908E5640908E564090800000000D2
:10002000000000000000000000000000E564090876
:10003000E564090800000000E5640908DD300508F2
:10004000E5640908E5640908E5640908E564090848
:10005000E5640908E564090881280408892804087A
:100060009128040899280408A1280408C50600005E
:10007000D9060000ED06000001070000150700008A
:10008000290700003D070000E5640908E564090848
:10009000E5640908E5640908E5640908A928040875
:1000A000E5640908ED540408E5640908DD54040812
:1000B000FD5404080D5504081D550408451F040887
:1000C000391F0408791F04086D1F0408E564090836
:1000D000E5640908F50D0000ED0E0000E50F0000D5
:1000E000B1280408E564090800000000E955040887
:1000F000C1550408F9550408B1550408510700001A
:10010000E5640908A54A04082D550408E5640908B2
:10011000DD100000D51100003D55040899A808081D
:1001200065070000790700008D070000A1070000A7
:10013000B5070000E5640908E5640908E5640908F5
:1001400000000000000000000000000000000000AF
:10015000C9070000DD070000F1070000CD12000014
:10016000AD1F0408A11F0408E5640908E564090837
:10017000E5640908E5640908E56409080000000071
:10018000E5640908E5640908C5130000BD14000012
:10019000E5640908E5640908E5640908E5640908F7
:1001A000E5640908E5640908E5640908E5640908E7
:1001B000E5640908E5640908E5640908E11F040825
:1001C000D51F0408E5640908E5640908E564090821
:1001D000E5640908F9AB0808E5640908E56409085D
:1001E000E5640908E5640908E5640908E5640908A7
:1001F000E5640908E5640908E5640908E564090897
:10020000E5640908E5640908E5640908E564090886
:10021000095604081956040829560408E564090813
:10022000E5640908E5640908E564090800000000C0
:10023000A94A0408E564090800000000E56409080B
:10024000E5640908E5640908E5640908E564090846
:10025000E5640908E5640908E5640908E564090836
:10026000E5640908E5640908E5640908E564090826
:10027000E5640908E5640908E56409080000000070
:10028000E564090800000000E564090800000000BA
:0802900000000000E56409080C
:020000040804EE
:100000004368426D30B49A61EFF31182502383F359
:1000100012884168D2B2856C0B68046D23EA05032F
:1000200023430B6082F31188436981681A68096869
:1000300022F00102D0E908541A60826A1D605C61F6
:100040005A60D0E90B429C60DA600023B0F86C2063
:1000500030BCCA620377704730B5FAB18E464FEABA
:10006000014C034600F1C005002419680C3353F815
:10007000042C43F8084C41EA0C0142EA0E02AB4260
:1000800043F80C1C43F8042CEFD1D0F8C03043EAFD
:100090000E03C0E93144C0F8C03030BD4FEA014E14
:1000A0008C46DEE710B40C4C6368002B11DD002099
:1000B00004F1080C0146DCF8AC3003F1C0025960D1
:1000C0000C339342FBD1013063680CF5867C83428C
:1000D000F1DC5DF8044B704704000020F0B5474C9C
:1000E00004EB401292F8543403B9F0BD4FF4B47CE1
:1000F000434B00264FEA401E0CFB004C9CF83A553F
:100100008CF83A6582F83A541D785A7895420DD0A9
:1001100002EB420C560003EBCC0C9CF804C00CF133
:10012000FF37012F5DD9BCF1030F55D004EB0E0052
:10013000A0F83814EFF31183902282F3128890F81C
:100140003A24DBB2B0F8381442EA4102002192B2FC
:1001500080F83A1483F311881309247883EA122370
:1001600083EA0201DCB11301C943D0F85024012411
:10017000D0F83C049BB201F00F01D2F8AC208440CF
:100180000B4302F1C000590013F4004F8BB202D1AF
:100190005168214351600C328242F4D1F0BD130109
:1001A000D0F83C44D0F8502401F00F0104F11000C5
:1001B0009BB20124D2F8AC200B43844002F1C00072
:1001C000590013F4004F8BB202D1516821435160A2
:1001D0000C329042F4D1F0BD571C07F00307AF4238
:1001E000A4D0324403EBC2030344597C00299DD0C0
:1001F00004EB0E03012283F83A2497E70400002061
:10020000081A0024704700BF024B03EB401090F81F
:100210005504704704000020704700BF0A4810F8DA
:100220004C1C81B101EB410100234438490010B45A
:100230001C4650F82320063302B114608B42F8D1DB
:100240005DF8044B70477047FC1000200A4810F816
:100250004C1C81B101EB410100234438490010B42A
:100260001C4650F82320063302B114609942F8D19D
:100270005DF8044B70477047FC1000200120704768
:10028000034B00EB400003EBC00010F8330C704749
:10029000FC1000202DE9F0431D4C14F84C3CABB38E
:1002A0000022A4F144034FF0500E1A4E4FF02C0CD4
:1002B000194F154607E053F8181B01320D6014F86A
:1002C0004C1C914222DD197C0029F4D05968FE2093
:1002D0004FEA9128A8F58018B8F1520F98BF17F887
:1002E0000800EFF311888EF31288D1F824900CFBEC
:1002F00000605FFA88F809F10109C0F88C9048693C
:1003000040F00100486188F31188D4E7BDE8F0832C
:10031000FC100020081A0024307F090807EE900A1C
:10032000B8EE670A704700BFBCEEC00A10EE103A84
:1003300098B27047C84BD3E9BE1270B58C0FC2F3A8
:10034000072C100E83F82843C1F38364000183F85F
:100350002943C1F3016483F82A43C1F3074483F8B6
:100360002B43C1F30724C9B283F82C43C2F30354CF
:1003700083F82D13A3F82E03C2F3C030B3F82E1365
:1003800089B22143C2F30344A3F82E13C2F34031D0
:1003900083F83043C2F3803483F83103002083F8BC
:1003A000324383F83313C2F3003183F8341393F8E4
:1003B000801383F83503012940F2F380022900F00D
:1003C000C580D3F800132A204FEA4C0C83F8414330
:1003D000C1F3C01201F07F010CF07E0C83F842C320
:1003E0004FF0010C93F842431443D3F8042383F8ED
:1003F0004243D40F83F84313910D83F84443C2F36F
:10040000417401F00C01C2F3815583F84543C2F3F6
:10041000826483F8464383F8471393F84713D3F86D
:100420000843294383F84713C2F3405183F8481324
:10043000002183F84913C2F3004183F84A13C2F341
:10044000C03183F84B13C2F3803183F84C13C2F3ED
:10045000403183F84D13C2F3003183F84E13C2F3D9
:10046000812183F84F13C2F30121C2F3460283F8BE
:100470005013C4F3074183F85123220E090283F875
:1004800052C383F85423C4F30722A3F85613240657
:10049000B3F8561389B21143A3F85613D3F80C13CB
:1004A000C3F858430C0ED3F8582342EA0442C3F869
:1004B00058230A0AD3F8584302F47F422243C1F377
:1004C0000724C9B2C3F85823D3F85853D3F81023DC
:1004D0002C43C3F8584383F85C13110E83F85D1363
:1004E000110C0906C3F860131102D3F860430A46E1
:1004F00001F47F01214392B2D3F81443C3F860138F
:10050000D3F860130A43C3F86023C4F30352D3F84B
:10051000601341EA1461C3F8601393F86413114344
:10052000C4F3072283F86413210A01F47061A3F86D
:100530006613B3F8661389B21143C4F34602A3F8F5
:10054000661383F8682383F869C370BD1204D3F877
:10055000001302F47C12C1F3072CC3F838230A0EEF
:10056000D3F8384344EA0224C1F30742C3F83843BE
:10057000D3F8384322434FF40074C3F83823D3F838
:100580003823C3F87843013240F10004A40244EA5E
:1005900092549202C3F87443C1F38034C3F87023B9
:1005A00012E74FEA8C2CD3F8001392004FF0010EA3
:1005B0000CF44064C1F3C26502F47F72C1F3072CEE
:1005C000C3F83843D3F838432243CC0BC3F838235D
:1005D00004F00602D3F8384344EA9174C3F8384370
:1005E000C1F3026483F83C5383F83D43C1F34254A2
:1005F00083F83E43C1F3824483F83F43C1F3C034E0
:1006000083F8402393F84023224383F84023D3F810
:10061000384393F8402393F8305302320EFA05F52D
:100620000EFA02F2C3F87853D617A2FB052E05FB8B
:1006300006EE04FB0EEE0134A2FB0424A644520A8B
:10064000C1F3803442EACE52C3F870234FEA5E22EF
:10065000C3F87423B8E600BF081A002438B5074B66
:1006600014460D46D3F884331B6A984702464FF46C
:100670000073002012682A60238038BD081A002405
:1006800008B5074BD3F8843333B15B69984780F0E2
:100690000100404240B208BD4FF0FF3008BD00BF2E
:1006A000081A0024002070472DE9F04123B31646B4
:1006B00088469F18144DD5F88443002341463046A0
:1006C000A4681A46A0470028F5D0D5F8843333B182
:1006D0005B69984720B9D5F88433002BF8D1FEE741
:1006E000013608F50078B742E5D1D5F88833002007
:1006F000C5F88C33BDE8F081034D0020D5F8883370
:10070000C5F88C33BDE8F081081A00242DE9F041CA
:100710005BB316460F4603EB0208184C04E0D4F80E
:10072000841319B14B699847D4F8841300230D69D9
:10073000304639461A46A8470028F0D1D4F8843309
:1007400033B15B69984720B9D4F88433002BF8D1D2
:10075000FEE7013607F50077B045E5D1D4F88833D8
:100760000020C4F88C33BDE8F081044C0020D4F89C
:100770008833C4F88C33BDE8F08100BF081A002428
:100780000020704770B50E4E0D461446D6F8E4337F
:100790003BB11A689B881269134096F8E12352B165
:1007A0005BB9FFF7C7FDD6F870234FF40073002044
:1007B0002A60238070BD002BF3D14FF0FF3070BD55
:1007C000081A00240020704700207047034B93F85C
:1007D000B403003818BF0120704700BF081A002476
:1007E000826D136A5B681B78FF2B08D090F8F0309D
:1007F000013BDBB280F8F0301BB1012070470020D4
:100800007047126A0220526813707047836D1B6A2A
:100810005B681B78FF2B0AD190F8F030002B03F1B6
:10082000FF3280F8F02014BF012002207047002022
:10083000704700BF034B93F8B403032894BF002014
:1008400001207047081A002400487047C01D00248A
:10085000034B93F8B403003818BF0120704700BF62
:10086000081A0024034B93F8B403032894BF002014
:1008700001207047081A002400487047C01D00245A
:10088000174B002030B493F82A4014B1DD698D4233
:1008900005D0013010330B28F5D130BC7047114B17
:1008A000A2B1D3F89C1401EB40218A4201D1022C61
:1008B00005D093F86C2672B1012283F8852403EBEE
:1008C0000013012283F8AE2430BC704703EB001004
:1008D00080F8AE24E1E7012283F86C26ECE700BF44
:1008E0008C1E0024081A0024002330B41A4C04F291
:1008F000844084F8583503E0013310300B2B19D0B5
:10090000C5698D42F8D190F82AC0BCF1030FF3D12C
:1009100092B1D4F89C1401EB43218A4205D094F89B
:100920006C26A2B1012284F8852404EB0313012272
:1009300083F8AE2430BC7047D4F8542504EB03137D
:100940000421013283F8AE14C4F85425F2E70122E1
:1009500084F86C26E6E700BF081A00242DE9F04170
:100960001C4D12F0DFFB0026074669684FF48678BD
:10097000002918DD00231C4608FB0352013392F8BE
:1009800005218B4244EA0204F6D112F0CBFBC01BD6
:10099000B0F5FA6FCCBF002304F00103B3B169686E
:1009A0001E460029E6DC12F0BDFB26B10A4B93F887
:1009B000DC26532A02D03046BDE8F081B3F8E426A5
:1009C00030460132A3F8E426BDE8F0813443E6B2B4
:1009D000EBE700BF04000020081A00242DE9F04FC7
:1009E000AA4D8DB02B7802931BB901200DB0BDE844
:1009F000F08F6B68A64A002BD2F8886318DD05F1EA
:100A000008040020A349D4F8F430BFF34F8F03F556
:100A10009072C1F85C3220339342FAD1BFF34F8F0A
:100A2000BFF36F8F01306B6804F586749842EADB80
:100A300099481821DFF878A2C36F00F5C4770693B0
:100A4000964BA3FB0623964E5B09A6FB0326F608EE
:100A500006EB8606A3EB4606924B13F8032C1C1FED
:100A600094F8F0B601FB023394F8DC1600220D3343
:100A70000391D0F8881091460B9300F180030A92FD
:100A8000049101931346D0F884100792069A0991B5
:100A9000F1B24A4507EB8606089140F3DE80DAF8AA
:100AA00018300121DAF804207F4801FA02F2D3E974
:100AB0003D14201801EB4B0301EB4000984240F23B
:100AC00018811D88154200F030815D88154200F0C4
:100AD0002E819D88154200F02C81DD880833154257
:100AE000ECD1A3EB010E039953294FEA6E05CEF327
:100AF000470E00F01681984240F2FE80641B452CA0
:100B000028BF452403EB4404A34280F0F580002570
:100B10009C460596A846294618881040884214D15C
:100B200058881040814240F0E0809888104081420F
:100B300040F0DD80D88808331040814206D19C42C5
:100B400007D9188810408842EAD002339C4200F24C
:100B5000B180B8F1110F059E40F2CE80C8F11503A7
:100B6000002BC0F2C980AEF10A0E5FFA8EFB07D0EF
:100B70009D40C8F11408012303FA08F848EA050566
:100B80004A4805F01F02C5F3C43300EB820200EBB4
:100B90008303516DC5F344125B6DC5F3842500EBEF
:100BA000820241EA033300EB8505516D43EA0111EE
:100BB0006B6D41EA03214FF6FF7381EA112282EA4D
:100BC000121202F00F02994298BF0F2A14BF01229D
:100BD000002200F0B080039B532B00F0D180049BD7
:100BE00001330493099B4FF6FF710133CDE90932BC
:100BF00097F85830089883420CD0B2683B689B1A2B
:100C00003B607B68326B9B1A7B600023B36033636D
:100C100087F858003B6801333B60B3680133B36029
:100C20004FF6FF73994275D17B6801337B60336B5C
:100C300001333363029B0793019B09F101095C3780
:100C40005C361433B9F1080F0AF1200A019305D07C
:100C5000069A029B4A453FF722AF13B10C4B83F82B
:100C6000F0B6079B1BB10C4B049AC3F888200A9B73
:100C70001BB1094B099AC3F884200123064A0120BD
:100C800082F886310DB0BDE8F08F00BF040000206F
:100C9000081A002400ED00E0FC1000201F85EB5135
:100CA000CDCCCCCC0C1A0024C7FFFF7F307F0908C5
:100CB0003C040020A3EB0C0C364833F8021C4FEA2E
:100CC0006C0C11400CF1010C80FB0C60A0EBEC7083
:100CD0004FF0010C0128B8BF012085408044013845
:100CE0000CFA00F09C46054316E704332EE7063362
:100CF0002CE7039D532D10D0039B0BF1FF3B532B8F
:100D00005FFA8BFB98D1244AB2F8E2360133A2F89D
:100D1000E23691E7029B07938EE7591A4D10C1F313
:100D2000470E1D49A1F8E6E6E5E60233D9E60433AD
:100D3000D7E60633D5E6039B0909532B09D0049B5C
:100D4000B1F5606F03F10103049310D0019B998109
:100D50004EE7049BB1F5606F0F4A03F10103049362
:100D6000B2F8E03603F10103A2F8E036EED10B9BB6
:100D700013F809300D2BE9D18023019A937737E7D7
:100D8000049B054901330493B1F8E0360133A1F81F
:100D9000E03627E756555555081A002410B5044685
:100DA00056F072F80146204689B2BDE81040FFF7C0
:100DB00095B900BF00EB400010B5084C04EBC0042F
:100DC00014ED0F7A54ED0E7AE7EE007AB0EE670A72
:100DD00056F05AF854F8443C186010BDFC1000203E
:100DE000F8B5264B1A785B789A4242D1244E736844
:100DF000002B23DD002506F10800224C2F46D0F8F9
:100E0000AC30BFF34F8F03F1E002C4F868322033F7
:100E10009342FAD1BFF34F8FBFF36F8F337813B183
:100E2000037F012B20D042690135716800F586707F
:100E30001368A94243F001031360E0DC12F072F979
:100E4000114BD3F86844002C0DDD03F26C4303EB27
:100E5000C4041968083333F8042CC8689C4242EA79
:100E60000002CA60F5D1F8BD80F8FC70FFF7C8F841
:100E7000D9E750F015F80028B8D1F8BD081A0024B9
:100E80000400002000ED00E0FC1000204FF0B04214
:100E9000F8B5D2F88030D2F888502B4003EA00052C
:100EA000C2F888507DB1084F0126B5FA85F4C4F127
:100EB0001F0407EB840306FA04F4D3F8F40603686E
:100EC0009847A543F1D1F8BD081A00240269C36808
:100ED0002DE9F04712EA03092AD005460E464FF0E5
:100EE00000474FF00008B9FA89F327FA03F21B3BD9
:100EF000D24309EA02092A61042B16D8DFE803F07D
:100F0000352C231A0300B36A002B37D003F1FF3AC4
:100F1000C6F828801FFA8AFA746A34B1236820461A
:100F2000514698476468002CF8D1B9F1000FDAD126
:100F3000BDE8F0877068696B036889B29847B9F1BA
:100F4000000FD0D1F4E7B068A96B036889B2984765
:100F5000B9F1000FC7D1EBE7F068E96B036889B21C
:100F60009847B9F1000FBED1E2E73069296C0368F8
:100F700089B29847B9F1000FB5D1D9E7E96A1FFAEC
:100F800081FAC9E78069B43045F038BE38B5134CF2
:100F900041F20D13124941F28832D4F8C857D4F8FF
:100FA00084072D048560C56829400B430D21C3606B
:100FB00048F074FC38B1D4F8B82703460020134336
:100FC000C4F8B83738BDD4F884375869C0F3432023
:100FD000A0F10400B0FA80F0400938BD081A0024DE
:100FE000C0E0FEFF08B5FFF7D1FFB0B10C4BD3F85E
:100FF000E40358B101688288096993F8E1330A4033
:101000002BB1002A0CBF00204FF0FF3008BD002A92
:1010100014BF00204FF0FF3008BD4FF0FF3008BD77
:10102000081A002470B5164C05460E4694F8B433E1
:10103000042B10D0082B15D1D4F8AC3383421CD02C
:10104000002394F88224C4F8B0330AB1C4F80038FD
:10105000FFF79CFF40B108230220C4E9EB5684F857
:10106000B43370BD012070BD0922D4F8883301204B
:1010700084F8B423C4F8A43370BD022070BD00BF4F
:10108000081A002410B50E4CD4F804383BB194F87B
:1010900010181A68C9079B8848BF1B0493614EF05B
:1010A00037FE02E05B69984720B9D4F88433002BFF
:1010B000F8D1FEE7D4F888330020C4F88C3310BD93
:1010C000081A0024F8B5394C08461146D4F8E45300
:1010D0004DB12A68AD881269154094F8E123002AC1
:1010E00044D0002D44D110F01F0241D10125C4F895
:1010F0001408C4F81C38C4F818534FF40075C4F829
:101100001858002848D094F8B457012D30D1D4F89D
:10111000D457C4F8B8275A18AA4234D81A464FF000
:1011200049FB28BBD4F81833002BFBD1D4F8843703
:1011300041F20D161E4FD4F8C857184641F28832B6
:101140000D212D049D60DD683D403543DD6048F094
:10115000A5FB80B9D4F884375A69C2F34322042A24
:10116000E9D1D4F88833C4F88C33F8BD002DBAD156
:101170004FF0FF30F8BDD4F8B827D4F884371043C7
:10118000C4F8B807D7E7D4F8B8374FF0FF3043F0CA
:101190000073C4F8B837F8BDD4F8B8374FF0FF3053
:1011A00043F00063C4F8B837F8BD00BF081A002444
:1011B000C0E0FEFF70B52D4D08461146D5F8E4435A
:1011C0003CB12268A4881269144095F8E123AAB3BF
:1011D000B4BB01220446C5F81C23C20630D15E020E
:1011E000BFF34F8F3EB100EB060C214EC6F86842AC
:1011F00020346445FAD1BFF34F8FBFF36F8F58B3DC
:1012000095F8B427012A1BD10022D5F8D447C5F898
:10121000B8275A18A24216D81A464FF02DFB78B9B3
:10122000D5F81C33002BFBD14FF088FB0428FBD1F1
:10123000D5F888330020C5F88C3370BD002CC8D198
:101240004FF0FF3070BDD5F8B8374FF0FF3043F0A6
:101250000073C5F8B83770BDD5F8B8374FF0FF3018
:1012600043F00063C5F8B83770BD00BF081A00240A
:1012700000ED00E010B5164CD4F8E4336BB11968FA
:1012800094F8E1239B8809690B4022B12BB100231C
:1012900084F8B43310BD002BF9D094F8B433032B89
:1012A0000FD894F8A8330133DBB2072B84F8A833A6
:1012B000EDD8D4F888230123C4F8A42384F8B433E8
:1012C00010BD044810F0E6FFA4F8EC03E9E700BF06
:1012D000081A0024801A060010B58CB0114C0023A7
:1012E00001220DF10701844604F57A7004920391FE
:1012F0000D498DF82820069102A902938DF814302B
:1013000009930B9384F880C4CDE9073310F0ACFD4A
:10131000D4F8E823136A002BFCD19DF807000CB029
:1013200010BD00BF081A00240D08040870B505465A
:1013300090B008200C46FFF7CFFFFF2826D0FE28EC
:1013400002D0022010B070BD0023124E02200122F4
:1013500001A98DF810308DF824300F9303948DF887
:101360003820CDE9073006F57A70CDE90135CDE9B1
:101370000533CDE90A33CDE90C3310F075FDD6F80D
:10138000E833186A0028FCD110B070BD012010B0FD
:1013900070BD00BF081A002430B591B000231D4D68
:1013A000FD200DF1030101228DF8030005F57A708F
:1013B000C5F8B0338DF810308DF824300F930392B8
:1013C0008DF83820CDE9053101A9CDE90133CDE90A
:1013D0000732CDE90A33CDE90C3310F045FDD5F8DD
:1013E000E8331C6A002CFCD10120FFF775FFFF28B1
:1013F00009D00922D5F88833204685F8B423C5F8EA
:10140000A43311B030BD0423022085F8B43311B0E9
:1014100030BD00BF081A002410B5044692B0080E73
:101420004FF0950C8DF8081000238DF80500080C7E
:1014300001228DF809C08DF80600080A062144F043
:10144000400C8DF8070001A8059103900DF10300F1
:10145000174904938DF804C08DF81830079308934A
:101460000A928DF82C3009908DF840201193CDE927
:101470000C13CDE90E334EF061F91CB180F0010080
:10148000C0B288B90B4C082303A904F57A7084F81C
:10149000803410F0E9FCD4F8E823136A002BFCD167
:1014A0009DF8030012B010BDFF2012B010BD00BFA8
:1014B0000D080408081A00242DE9F0410546884665
:1014C00017461E46334C94F8B403042839D0082834
:1014D00007D1D4F8AC33AB4206D0FFF75DFF02284A
:1014E000F1D00120BDE8F081FC23D4F8E82384F892
:1014F0002038117B284BC3F8288051B1526942B182
:1015000094F87024002A0CBF4FF480724FF40072DC
:1015100001E04FF480721A631F49204810F0A4FCC8
:10152000012206230020C4F89083C4F89453C4F821
:101530009C73C4F8A06384F8982384F8B433BDE89E
:10154000F081D4F8F0331BB19A88196812048A61CB
:1015500094F8AA3353B969021820FFF75DFF38B930
:1015600094F8B433082BBFD0FE23BEE72946F3E737
:10157000D4F8E823136A002BFCD14FF079FED4F89D
:10158000F03313B11A689B889361FFF773FE032051
:10159000A8E700BF081A002400000024F01D002462
:1015A00070B5254C06460D4694F8B433042B09D08B
:1015B000082B26D1D4F8AC3383423BD0FFF7ECFEA6
:1015C00002281ED1D4F8F0331BB11A689B881B0483
:1015D000936100213720FFF71FFF29461720FFF7EF
:1015E0001BFFB0B994F8AA336BB971021920FFF749
:1015F00013FF70B908230220C4E9EB6584F8B43303
:1016000070BD012070BD31461920FFF705FF00288D
:10161000F0D0D4F8E823136A002BFCD14FF028FE59
:10162000D4F8F03313B11A689B889361FFF722FE58
:10163000032070BD022070BD081A00242DE9F84374
:10164000254D80468946174695F8B4431E46042C1E
:1016500008D0082C02D00020BDE8F883FFF79CFEDC
:101660000228F8D1D5F8F0331BB19A881968120412
:101670008A6195F8AA33BBB94FEA48211120FFF7D8
:10168000CBFEB8B90522D5F888330120C5F8909370
:10169000C5F89483C5F89C73C5F8A06385F8B42396
:1016A000C5F8A433BDE8F88341461120FFF7B4FE26
:1016B0000028E7D0D5F8E8331C6A002CFCD14FF0A5
:1016C000D7FDD5F8F033002BC5D01A6820469B888B
:1016D0009361BDE8F88300BF081A0024817899B1AE
:1016E0000C48D0F82438102B0FD003EB4302013301
:1016F0004FF0200C0244C0F82438012382F8281847
:1017000082F829C882F82A3870470521002013F092
:101710005BBC00BF081A00242DE9F043B24C95B021
:1017200094F8E063002E00F0D18194F8B43304F50E
:1017300074775A1E082A00F26D81DFE812F0340037
:101740007700D2006B0159017A011B006B0109007F
:101750004DF0F4FF002840F04F83D4F8A433D4F8C0
:101760008823FA33934280F05281FFF783FD94F887
:10177000B433DEE74DF0E2FF0028EED0D4F8B0330A
:101780000022012B84F8A82340F24A83D4F8AC232A
:10179000013B082106460132C4F8B03384F8B41383
:1017A000C4F8AC231BE1D4F8F0331BB11A689B8852
:1017B0001B04936100210846FFF72EFED4F8E8339E
:1017C00080461D6A002DFCD14FF052FDD4F8F03355
:1017D000002B00F025821A68B8F1010F9B889361F5
:1017E00040F015811B0484F8A953936140F2AB11BA
:1017F0000820FFF711FE052800F0D881012800F02D
:101800008D81D4F8E823136A002BFCD14FF030FD12
:10181000D4F8F03313B11A689B88936194F8A93314
:10182000002B00F0E582022384F8B433D4F8F033BF
:101830001BB11A689B881B04936194F8A93300219B
:101840003720022B0CBF4FF080450D46FFF7E4FD1B
:1018500029202946FFF7E0FDD4F8E8230546136A5E
:10186000002BFCD14FF004FDD4F8F03313B11A680B
:1018700099889161002D40F0CA8094F8A923022A2A
:1018800000F0118284F8AA531BB11A689B881B04CC
:10189000936100210920FFF7BFFD002800F08C8133
:1018A0004FF00008D4F8E823136A002BFCD14FF066
:1018B000DFFCD4F8F033002B00F0CF811A689B884E
:1018C0009361B8F1000F00F0A2801B049361002126
:1018D0000A20FFF7A1FD002840F0AF81032384F820
:1018E000B433102105A8FFF721FD002840F08F80B8
:1018F000BDF815209DF81C3052BA9DF81410DDF883
:101900001D00A4F8BC239DF8172000BA84F8BE136C
:1019100003F00F0184F8BF239DF8182084F8C91341
:1019200084F8C0239DF81920C4F8C40384F8C123A7
:101930009DF81A2084F8C2239DF81B2084F8C32345
:101940001A099DF8213084F8C8231B019DF8222034
:10195000DBB243EA121302F00F0203F5FA6384F8D4
:10196000CC23D4F8E823A4F8CA33136A002BFCD1A3
:101970004FF07EFCD4F8F033002B00F058811A6849
:1019800094F8AA139B889361B9B91B0493614FF42F
:1019900000711020FFF740FDD4F8E8230546136AD4
:1019A000002BFCD14FF064FCD4F8F03313B11A686B
:1019B0009B889361002D7FF4D8AE0C4810F06AFC30
:1019C00004220021A4F8EC03134684F8B423C4F8DD
:1019D000B013042B18BF082B0CBF0126002630467D
:1019E00015B0BDE8F08300BF081A002440787D01DF
:1019F0004FF40071D4F89003FFF798FC012800F031
:101A0000AE80022800F0B380002800F02B8194F80B
:101A1000B4335A1ED2B2022ADBD8D4F88833D4F8B1
:101A2000A4239B1AC82B6ED80026304615B0BDE8FB
:101A3000F083D4F8E823117B136A00294CD0526953
:101A4000002A49D094F87024002A45D0B3FA83F3D1
:101A50005B09002BDBD004AA002305A9B04805923E
:101A60000222ADF8103007920DF10F0206930B928F
:101A700001228DF8203009930A938DF834301393A6
:101A80000C928DF84820CDE90E33CDE9103310F0DB
:101A9000EBF9D4F8E8331D6A002DFCD19DF80F3026
:101AA00003F01F03052B00F08D81FFF7E3FBD4F853
:101AB0009C83B8F1000F76D0D4F8A0332A46D4F82E
:101AC00094130120C04794F8B43332E6304684F8CA
:101AD000B46315B0BDE8F083D4F890334FF480724E
:101AE00094F898138E4803EB01214DF0DFFD94F834
:101AF00098230132D2B2A2F1020384F89823B3FAF8
:101B000083F35B09A5E7FFF7B5FB94F8B463082EF0
:101B100018BF042E0CBF0126002660E704AA00238C
:101B20008DF8340005A9069204227D48079205939A
:101B30008DF820300E93CDE90933CDE90B3310F049
:101B400093F9D4F8E823136A002BFCD19DF81330E5
:101B5000AB2B7FF458AE022384F8A93353E6D4F8B4
:101B6000A433D4F8882364339342BFF450AFD4F83D
:101B7000E823136A002BFCD14FF07AFBD4F8F03342
:101B800013B11A689B889361FFF774FBD4F89C53D8
:101B90004DB10022D4F8A033D4F894131046A847CE
:101BA00094F8B433C5E594F8B433C2E50123D4F80E
:101BB000E82384F8A93326E610213846FFF7B6FB60
:101BC00000287FF46DAE94F8DF33DB077FF568AE55
:101BD00094F8D023921100F0A780012A7FF460AE20
:101BE00094F8D7231621DFF83CC102259200D2B227
:101BF000C5F108038B4228BF0B46C3F10805984086
:101C0000C91A42FA05F24FF0000540EA02001CF83A
:101C1000012FEDD1431CB0469B02C4F8B83341E616
:101C2000B8F1010F7FF4F3AE84F8A933DEE594F840
:101C3000AA33002B3FF4ABAEBFE6D4F8E823136A17
:101C4000002BFCD14FF014FBD4F8F033002B3FF401
:101C50008CAD1A689B88936187E5B8F1000F7FF41B
:101C600036AED4E6D4F8E823136A002BFCD14FF04B
:101C7000FFFAD4F8F03313B11A689B8893610423F8
:101C80000020D4F89C5384F8B43384F8A803002DC2
:101C90003FF4A5AED4F8A033D4E9E421A84794F8E2
:101CA000B4335A1EB6E61BB11A689B881B049361B5
:101CB00000213A20FFF7B0FB0023054605A9059354
:101CC0008DF820300E931648CDE90933CDE90B335A
:101CD00004AB06930423079301238DF8343010F0EE
:101CE000C3F8D4F8E8331A6A002AFCD18DB91A6A0D
:101CF000002AFCD14FF0BCFAD4F8F03313B11A68C3
:101D000099889161049A12BAC2F3807284F8AA2366
:101D1000BAE51A6A002A95D01A6A002AF9D191E721
:101D2000F01D0024DF1D002494F8D533012594F81C
:101D3000D903032103F00F03DFF828E180019D4060
:101D40005FFA80FC0620C0F108038B4228BF0B46D7
:101D5000C3F108009A40C91A4CFA00F01EF801CFEE
:101D600042EA00024FF00000EDD1084694F8D61385
:101D70000232DFF8F48089014FF00C0C4FF0060EB0
:101D8000C9B2CEF108034FF0000E634528BF634689
:101D9000C3F108099840BCEB030C41FA09F140EA91
:101DA000010018F8011FECD1431CE917B04693401D
:101DB000A3FB055203FB01226D0A45EAC255C4F894
:101DC000B8536FE50722D4F88833D4F89C6384F8BD
:101DD000B423C4F8A433002E3FF401AED4F8A033EA
:101DE0000120D4E9E421B04794F8B4335A1E11E637
:101DF0001E4684F8B433F2E5D4F8E823136A002BC6
:101E0000FCD101904FF034FAD4F8F033019813B1BB
:101E10001A689B8893610423064684F8B433DEE590
:101E200015D00423D4F8E82384F8B433136A002BC4
:101E3000FCD14FF01DFAD4F8F033002B3FF4E7AD9E
:101E40001A689B88936194F8B4335A1EE2E5FFF751
:101E5000A3FA02287FF4DBADD4F8E8331A6A002A2B
:101E6000FCD1E6E7E11D0024DE1D002410B4294C5E
:101E700094F88C346BB3D4F89424904235D0012B71
:101E800027D0D4F87025824237D0022B21D0D4F845
:101E90004C26904233D0032B1BD0D4F828279042F5
:101EA0002FD0042B15D0D4F8042890422BD0052B2A
:101EB0000FD0D4F8E028904227D0062B09D0D4F8D0
:101EC000BC29904223D0072B03D0D4F8982A824211
:101ED00011D0DC22591C02FB034284F88C14C2F896
:101EE000940418465DF8044B70470023DBB25DF89C
:101EF000044B184670470723F8E70123F6E702234F
:101F0000F4E70323F2E70423F0E70523EEE70623D3
:101F1000ECE700BFFC10002000207047704700BFB6
:101F200010B1036882889A61704700BF18B1838836
:101F300002681B0493617047014846F029B900BF4D
:101F400078220024084810B4D0F87038D0F8A4489B
:101F500099691A682CB1234600F507605DF8044BB7
:101F600018475DF8044B7047081A0024014846F0F2
:101F70000FB900BFDC220024084810B4D0F8D438D0
:101F8000D0F8084999691A682CB1234600F6D400A4
:101F90005DF8044B18475DF8044B7047081A00249D
:101FA000014846F0F5B800BF40230024084810B4AB
:101FB000D0F83839D0F86C4999691A682CB12346A1
:101FC00000F638105DF8044B18475DF8044B704775
:101FD000081A0024014846F0DBB800BFA4230024FF
:101FE000084810B4D0F89C39D0F8D04999691A68DB
:101FF0002CB1234600F69C105DF8044B18475DF8A1
:10200000044B7047081A00242DE9F0470546642068
:10201000C24C82B005FB00F02618D6F870080028E4
:1020200000F0AD80FF2A06F5076700F0E58096F81E
:10203000B1C8BCF1200F40F0D58096F8B0C8BCF113
:10204000010F00F0CF804FF0010C86F8B0C8D4F833
:10205000E86907E0D4F8E8C9ACEB060CBCF1190F4D
:1020600000F23281D0F8188018F40048F2D14FF015
:10207000640A4FEA41090A999BB20AFB054A3846AD
:102080000096CAF894182221CAF8A4888AF8B118D0
:1020900040218AF8B2184946CAF8B488AAF89A3892
:1020A0000A234EF0D7FF002840F03382BAF89A385E
:1020B0009BB2FF2B00F22481BAF89A38DAF8701834
:1020C0009BB297484A68AAF89838DBB2024049EABE
:1020D00003431343934A1A434A604FF06408924AF9
:1020E000FF20DFF850A208FB0548D8F870E805E0AB
:1020F000D4F8E8399B1B0A2B00F26981DEF818300E
:1021000013F0040CF4D0DEF82430D8F894180B70D7
:10211000B8F89A38B8F898C8013B0CF1FF3C9BB26C
:102120001FFA8CFCA8F89A38D8F89438A8F898C800
:102130000133C8F89438B8F89A389BB2BCF1000F54
:1021400002D1002B40F07B81B8F89A389BB2002B6B
:10215000CBD1314638464EF0BBFF0346002841D173
:10216000D8F8702820247148D461516801400120BA
:10217000516088F8B14888F8B03888F8B23802B0B1
:10218000BDE8F087D4F8E829A2EB0C020A2A00F295
:10219000D3808B6913F02003F4D020231022CA616E
:1021A000CB618B69980701D500238B628B69DA07B5
:1021B00003D48B6943F001038B614A6864235B4E4F
:1021C000002003FB0545324020264A60D5F8B4388C
:1021D00085F8B00843F00403C5F8B43885F8B16851
:1021E00085F8B208B4F8EC39002001339BB2A4F8AA
:1021F000EC3902B0BDE8F08796F8B128202AF1D179
:1022000096F8B028012AEDD00122D4F8E8C986F862
:10221000B02805E0D4F8E829A2EB0C02192A53D81B
:10222000866916F40046F5D14A0064214FF0220E6B
:102230001FFA83F801FB05410A9B81F8B1E84FF0D2
:10224000100EC1F8943881F8B2E8C1F8B468A1F86A
:102250009A88B1F89A38C1F8A4689BB2FF2B44D889
:10226000B1F89A382E4E9BB2A1F89838DBB241688B
:1022700042EA034331400B432A4919434160642633
:1022800029484FF0FF08DFF8ACE006FB0546B6F83A
:102290009A389BB2002B00F02481D6F870180BE01E
:1022A0008B6913F0200940F0A280D4F8E839A3EB41
:1022B0000C030A2B00F2B5808B695B074CD48B6949
:1022C000DB063FF566AFEBE764232021002203FB2A
:1022D0000545D5F8B43885F8B0280B43C5F8B438AF
:1022E00085F8B11885F8B2287CE743680C4E334076
:1022F0000F4E13431E43FF23A1F898384660BEE7F4
:10230000DAF87018FF230648AAF898384B68084A8C
:10231000034043EA09031A434A60DEE6081A002430
:10232000009800FC00240082009C00FC00E800FEF5
:102330000024FF810000FF016422202102FB0545EB
:10234000D5F8B42885F8B0380A43C5F8B42885F81C
:10235000B11885F8B23845E7496AD6F8943819704B
:10236000B6F89A38B6F89818013B01399BB289B291
:10237000A6F89A38D6F89438A6F898180133C6F813
:102380009438B6F89A389BB2002B80D000297FF49D
:102390007EAFD6F8709805E0D4F8E839A3EB0C03CB
:1023A0000A2B7BD8D9F8181011F08001F4D0B6F8B8
:1023B0009A389BB2FF2B60D9D9F80430A6F89888D8
:1023C0000340134343EA0E03C9F804305FE7642374
:1023D000202203FB0545D5F8B43885F8B0C813436F
:1023E000C5F8B43885F8B12885F8B2C8FAE68B6923
:1023F0005B0703D5B6F89838002BADD12020464AAC
:10240000C8614B68134000224B60642303FB054501
:10241000C5F8B42885F8B02885F8B10885F8B22841
:10242000E0E66423202203FB0545D5F8B43885F89F
:10243000B0981343C5F8B43885F8B128D2E6D8F877
:1024400070E804E0D4F8E8399B1B0A2BBFD8DEF80B
:10245000183013F0800CF5D0B8F89A389BB2FF2BE7
:102460002CD9DEF80430A8F89808134043EA090391
:1024700043EA0A03CEF8043066E6B6F89A38D9F88B
:1024800004109BB20140A6F89838DBB242EA03433D
:102490000B4343F00073C9F80430F8E664232022AC
:1024A00003FB0545D5F8B43885F8B0181343C5F8D3
:1024B000B43885F8B12885F8B21893E6B8F89A3898
:1024C000DEF804C09BB20CEA020CA8F89838DBB224
:1024D00049EA034343EA0C0343F00073CEF80430A7
:1024E00032E6614638464EF0F3FD034600287FF49D
:1024F00079AED6F8702820240748D461516801408D
:102500000120516086F8B14886F8B03886F8B238B4
:1025100035E68AF8B08865E600E800FE114A037ADD
:102520000168D35C10B4CC58CA1824F00104CC5014
:102530001368DB07FCD4037D1F2B09D9203B202225
:102540005DF8044B02FA03F343F01803CB607047C5
:1025500020225DF8044B02FA03F343F018038B606A
:10256000704700BF34F60908F8B507680646D7E992
:102570000454A0612B7D1F2B49D9203B20222868C1
:1025800002FA03F343F01803C360237D1F2B48D9DD
:102590002022203B02FA03F3226843F01803D360A1
:1025A0006368002269680A601A601A6842F01002C3
:1025B0001A60BA69297A50F04FF9FA69217A2068CD
:1025C00050F04AF933682E681A6A5B689168586857
:1025D000184A024020680A4317495A602A7A8D5CDB
:1025E000725942F001027251227A895C425842F0DB
:1025F000010242509A6842F440429A601A6842F0DE
:1026000001021A601A6842F400721A60F8BD2022B2
:10261000286802FA03F343F018038360237D1F2B1D
:10262000B6D8202202FA03F3226843F0180393601D
:10263000B6E700BF0000FFFF34F6090808B51D200B
:1026400010F0C4F908B183794BB11E2010F0BEF927
:1026500008B1837903B108BD5523C38008BD552354
:10266000C380F2E7D3B20F2B29D84FF0000C10B47F
:102670006346144C04E001332A2B1CD014F803CF1A
:102680006045F8D194F801C08C45F4D10E4C03EBB1
:1026900043030E4902EB420C23445DF8044B01EB6B
:1026A0008C0201F1500093F8D63000EB8C0093655A
:1026B00082F85030704700205DF8044B70470020CE
:1026C000704700BF04800908307F0908000000241B
:1026D00010B40C4C002304F51F6C01E0152B0CD03A
:1026E00003EB430201331CF802108142F6D122446D
:1026F0005DF8044B92F9F20970474FF0FF305DF836
:10270000044B7047081A002430B40023114C124DBA
:1027100004E001331A2B19D054F8085FA842F8D10D
:1027200025798D42F5D10D4C02EB42050C4904EBA5
:10273000C30301EB850201F1500093F8593100EB1E
:102740008500936582F8503030BC7047002030BC63
:10275000704700BF8480090800000140307F0908ED
:1027600000000024F0B1002310B504460E4894F890
:1027700004E000F51F6C01E0152B11D003EB4302C0
:1027800001331CF802107145F6D1024461792068CA
:1027900092F9F229D3B20F2B02D8BDE81040B3E76B
:1027A000002010BD00207047081A00240138074B94
:1027B000074A00EBC00003EB8000D0F81001904204
:1027C0000CBFA020A1204EF073BD00BF000000246C
:1027D0000000024001382DE9E84100EBC000134D34
:1027E0001E46134B05EB800590460F46D5F81001A9
:1027F00098420CBFA020A1204EF05AFDB5F9260149
:102800004FEA9811C5F82071C5F828614EF0B0FC68
:10281000B5F92631002B07DB03F01F0001225B090D
:102820000449824041F82320BDE8E88100000024EB
:102830000000024000E100E0800AA0F5801052286C
:1028400006D8044B1B5C0D2B02D8034AD0567047A8
:1028500000207047307F090824F6090870B183888A
:102860004FF00042B3FA83F332FA03F306D04FF08D
:10287000B041D1F880201343C1F88030704700BFC9
:102880000120FEF703BB00BF0220FEF7FFBA00BF26
:102890000420FEF7FBBA00BF0820FEF7F7BA00BF1E
:1028A0001020FEF7F3BA00BF4FF47870FEF7EEBACF
:1028B0004FF47C40FEF7EABA70B50C4686B0054688
:1028C000164640B101680E4B0E4A0B449B0A02EBC0
:1028D0004303B3F824024EF0EBFC04F01303AA8880
:1028E00001A90293C4F341132868C4F3810401923F
:1028F0000596CDE9033445F005FB06B070BD00BF79
:102900000000FEA7307F090800B1D5E7704700BF7F
:102910002DE9F843B14C04EB0017D7F8303A002BFF
:1029200000F0BF8005460601B7F83A0A4EF0C0FC39
:10293000B7F83A3A012103F01F025B09023B01FAA2
:1029400002F2082B0FD8DFE813F00801100118017C
:10295000200128010900300138014001A04BD96F46
:1029600021EA0202DA67A319013593F8340AEDB2BD
:1029700010F02CF8074610B11223C5718371A3190A
:1029800093F8350A10F022F8814610B11323C5716F
:102990008371A31993F8360A10F018F8804610B125
:1029A0001423C5718371344448462E2194F8382A83
:1029B000FFF7AAFF94F8392A0E214046FFF7A4FF3B
:1029C00094F8372A2E213846FFF79EFFD4F8303A84
:1029D00084491A688B4222F001021A6063D0824A4D
:1029E000934200F08F8002F58062934279D17C4A55
:1029F000D2F8901041F40041C2F89010D2F8901033
:102A000021F40041C2F89010DA6842F00042DA6026
:102A10009A6822F4F0729A601A68D60741D4734912
:102A20009D68D1F86823D1F8704344EA0200D1F8D8
:102A3000582310436E4A2A401043D1F8642398600B
:102A4000DD68D1F85403ED007BD50243D1F85C0377
:102A5000DE68B4F5800F42EA0002D1F86003654DEC
:102A600042EA0002D1F86C0305EA060542EA0002D8
:102A7000D1F8500300F4C02600F4006042EA0602D8
:102A800042EA0502DA601A6822F4006242EA0002B1
:102A90001A6002D1D1F874231A641A6D22F001026F
:102AA0001A65BDE8F8834E4AD2F8981041F4805177
:102AB000C2F89810D2F8981021F48051C2F89810FA
:102AC0004D4A9342A0D1464AD2F89C1041F02001D1
:102AD000C2F89C10D2F89C1021F02001C2F89C1082
:102AE00092E7464A93421BD13D4AD2F8981041F4EE
:102AF0000051C2F89810D2F8981021F40051C2F891
:102B0000981081E7364AD2F8901041F48041C2F81B
:102B10009010D2F8901021F48041C2F89010CFE7C5
:102B2000374A9342CCD12E4AD2F8981041F4801102
:102B3000C2F89810D2F8981021F48011C2F89810B9
:102B400062E7B2F1806F80D1B0F5800F7FF47DAF86
:102B50001D6845F480551D6077E7214BD3F8981028
:102B600021EA0202C3F89820FDE61D4BD3F890102D
:102B700021EA0202C3F89020F5E6194BD3F894102D
:102B800021EA0202C3F89420EDE6154BD3F8801039
:102B900021EA0202C3F88020E5E6114BD3F8841045
:102BA00021EA0202C3F88420DDE60D4BD3F88C1035
:102BB00021EA0202C3F88C20D5E6094BD3F888102D
:102BC00021EA0202C3F88820CDE6054BD3F89C1019
:102BD00021EA0202C3F89C20C5E600BF081A0024BF
:102BE000004402580030014000380040000000243A
:102BF000E0FFBF8FFFFF39D80014005800340140B8
:102C00000050014008B1002256E670472DE9F04718
:102C10006423DFF8A89203FB0093D3F85888B8F137
:102C2000000F07D0D3F860580746002D00F024812C
:102C3000AA790AB1BDE8F087D3F864A8BAF1000F09
:102C40002DD09AF80630002BF4D17B1C1522DBB274
:102C5000AA71EB718AF8073016238AF80630B8F8A3
:102C6000180009264EF024FB2846FFF759F9504674
:102C70001121FFF755F92846FFF7C4FF11215046EF
:102C8000FFF7C0FF332425B12A68AB8811691942C8
:102C90000ED1013C00F0EA804EF0EAFAF3E715238A
:102CA000AB71431CEB714FF0000AD8E72A68AB8880
:102CB0001B0493614EF0F2FA2B68AA889A614EF0D9
:102CC000EDFA013EDED12846FFF730F94EF0E6FA84
:102CD0005046FFF72BF94EF0E1FA2846FFF720F9AE
:102CE0004EF0DCFA5046FFF71BF92846642507FB37
:102CF00005F509EB050494F86A3894F86828002B68
:102D000014BF3E211E21FFF7FFFD94F86A3850469C
:102D100094F86928002B14BF3E211E21FFF7F4FD13
:102D200060484C223146284454F08CFFD4F858387F
:102D30005D4A5B689342C4F8703800F0AB8045F0A0
:102D400097FD5A4BDA69C2F30212594B64241344BB
:102D500004FB079493F85832B4F86C1803F01F037F
:102D6000D8404EF025FB0023C4F87408C4F8783826
:102D7000C4F88038C4F88438C4F88C38C4F8903863
:102D80000123C4F87C3894F8B13803F0FF02002B1B
:102D900000F085806423242420F070604FF4004507
:102DA00003FB0797434AD7F8703887F8B14819688A
:102DB00021F0010119601861996821F400419960BE
:102DC0009D6059680A435A60DA6822F40042DA606A
:102DD000D7F888281202DA6000221A60196841F0D8
:102DE000010119602021C7F8B42887F8B118C7F885
:102DF000A02887F8B22897F8B1182029C8B217D1AF
:102E000097F8B018012913D087F8B148196821F054
:102E100001011960196821F480511960196819605D
:102E2000196841F00101196087F8B10887F8B028E6
:102E3000002198F81B004EF09BF998F81B300124F4
:102E40001D4D03F01F025B09002104FA02F245F850
:102E5000232098F81A004EF08BF998F81A3003F0F6
:102E60001F025B09944045F82340E3E6002D7FF400
:102E70001DAF4EF013FA22E7D3F864A8BAF1000FA1
:102E80003FF411AF9AF80630002B7FF4D3AE7B1CD1
:102E9000DBB2DFE645F0ECFC044B1A6A53E784F83A
:102EA000B02877E778220024001C0058004402581C
:102EB000307F09080080000200E100E0081A0024C9
:102EC0000D4B70B5DE6F002E14DD0C4C002503E0B9
:102ED000B54204F120040DD0237F0135002BF7D03B
:102EE000E06800220028F3D0217D2034FFF7E4FCC5
:102EF000B542F1D1012070BDFC1000203C0400203F
:102F00002DE9F04FBB4D7C229BB0002105F284706F
:102F100054F098FED5F8904A4FF4805295F8966A8E
:102F20002368C5F88C27C5F884371EB14FF480425A
:102F3000C5F890274FF40032C5F894270122C5F850
:102F4000982795F8B427002A00F0A2800322AA4B04
:102F500085F8B427DA6CD0034AD50AA845F0C2FC3C
:102F60000C9AA649130AA1FB03131B095C00D5F8B0
:102F70008407A242A249466801EA060143EA010326
:102F80004360036843F00303036046D2D5F8E829A1
:102F9000D5F8E8399B1A022BFAD90023994ADFF8B1
:102FA000889204938360C36897491A40D9F87833AC
:102FB000A1FB033141F2883342F48052490AC260D6
:102FC00003FB01F10B4602E0426B170633D4013BD1
:102FD000FAD24FF0004001232A2285F8B437D5F801
:102FE000B8371843C5F8B80710461BB0BDE8F08FD6
:102FF000996A9C6ADE6A14F47C7FC4F30512586BEC
:1030000040F09480D5F8840714467D4B41680B400E
:103010004360036843F003030360D5F8E819B2FB8B
:10302000F4F47A4AB2FBF4F20232D5F8E8395B1ACA
:103030009A42FAD8B1E7764B4C1E724A83634FF43A
:10304000D5738360C3681A4041F208131343C36009
:10305000234649B1426B013B12F0450F02D0910467
:1030600040F1E4805E1CF5D10023C5F8C0378360D1
:10307000644BC268134043F48053C36003E0436B66
:10308000190600F18D83661C04F1FF34F7D1A0E727
:10309000604A934200F092805F4A934200F083833B
:1030A00095F8A40A0FF092FC034695F8A60A01933E
:1030B0000FF08CFC804695F89C0A0FF087FC019B72
:1030C000074695F89EBA95F8A0AA95F8A29A2BB152
:1030D000184695F8A52A0E21FFF7EEFBB8F1000F70
:1030E00005D0404695F8A72A0E21FFF7E5FB2FB142
:1030F000384695F89D2A0E21FFF7DEFB002E40F0A2
:10310000FF820021B4F904004EF032F8D5F8903A6D
:10311000B3F90430002BFFF619AF03F01F000122B2
:103120005B093E49824041F823200FE7C0F3CC0001
:1031300006F0010601F0030106FB00F0012907EE8D
:10314000900AF8EEE77A05D0022900F0C983002939
:1031500000F0A18307EE102A9FED315AF8EEC76AFE
:103160001B6B85EE267A9FED2F6AC3F3080306EEEC
:10317000903AF7EE005AF8EEE66A76EEA56AE7EEC8
:10318000866A27EE267A1C4AF7EE006A1B49136B03
:10319000136B126BC3F3064307EE903AF8EEE77A2F
:1031A00077EEA67AC7EE276AFCEEE67A17EE902A4B
:1031B000130AA1FB03131B095C00D8E60E4BD3F8DE
:1031C000D42022F48032C3F8D420DA6F42F4803263
:1031D000DA67DA6F22F48032DA67D3F8D42042F467
:1031E0008032C3F8D420D3F8D43003F4803303936F
:1031F000039B55E7081A002400440258598B4F01DD
:10320000002CC0FFC0E0FEFFD34D62101021010072
:10321000C5002000007000520024024800E100E0D8
:103220000024744A0000003900000024436B5A0750
:1032300000F15D83436BDB0700F12983436B5F067D
:1032400000F1D182012200233721C5F8C027836015
:103250005E4AC3681A4041F23713134341F2883281
:10326000C36046F01BFB00283DD1049A4FF6FE7365
:103270009A4200F2B380D5F88447544EDFF8588163
:10328000534F002041F2371341F288323721A060BA
:103290002046D4F80CC00CEA060C4CEA0303E360A9
:1032A00046F0FCFA00287FF496AED5F8844741F248
:1032B0002911D9F8783341F28830C4F80880A7FB87
:1032C0000332E368520A334000FB02F21943531EF3
:1032D000E16042B1626B013B12F0450F01D09004F6
:1032E00004D55A1CF6D14FF0805074E6636B590731
:1032F00000F1FB81374BA3636269049B002A03F151
:1033000001030493049B03DB4FF6FE718B42B8D993
:1033100004994FF6FE73994200F26882520063D519
:10332000236801229B07C5F8BC2700F0E681002333
:10333000264E2046A36041F20233E2683240134336
:10334000E36046F045FB034698BBD5F88447D5F8C3
:10335000BC07626904F118010328C5F8F027A269C7
:10336000C5F8F427E269C5F8F827226AC5F8FC27F2
:1033700000F09284A36041F20313E168D9F8782346
:1033800031400B431249A1FB021241F28831E36044
:10339000520A01FB02F2531E4AB1626B013B12F06A
:1033A000450F02D0900440F12D825E1CF5D14FF004
:1033B000004301212A2285F8B4171046D5F8B81722
:1033C0000B43C5F8B8371BB0BDE8F08FC0E0FEFF77
:1033D000D34D6210C5002000000010C1049A9A422B
:1033E00000F20482D5F8844723689F0700F08581A6
:1033F000D5F8BC0703289AD1D5F8E02704F11801C5
:10340000D5F8E4370968090DC5F8C417910F8DF890
:103410002810C2F383618DF82910C2F301618DF881
:103420002A10C2F307418DF82B10C2F30721D2B244
:103430008DF82C108DF82D201A0DADF82E20C3F329
:1034400003428DF83020C3F3C0328DF83120C3F32E
:1034500080328DF83220C3F340328DF83320C3F32D
:1034600000328DF8342000228DF83520002840F0FD
:10347000658140F6FC71D5F8E82701EA8303C2F3C1
:10348000C26143EA92730E93C2F342538DF83C102B
:10349000C2F302618DF83D10C2F382418DF83E30D7
:1034A000C2F3C2338DF83F108DF840300E9B9DF86B
:1034B0004010013301F00701023103FA01F19DF8D8
:1034C000303003F00F000123C5F8CC178340C5F856
:1034D000D0375B0A01FB03F34FF40071C5F8D43712
:1034E000C5F8D817C2F38031D5F8EC37D5F8C8073E
:1034F00001278DF84110C2F3C61102F07F020004CB
:103500008DF84210D90F8DF843208DF84410C3F385
:103510004171B84E8DF84510C3F382618DF84610A5
:10352000C3F383518DF84710C3F340518DF8481011
:1035300000218DF84910C3F300418DF84A10C3F300
:10354000C0318DF84B10C3F380318DF84C10C3F3AC
:1035500040318DF84D10C3F300318DF84E10C3F398
:1035600081218DF84F10C3F30121C3F346038DF879
:10357000501007218DF8513041F207138DF8527029
:10358000A0602046E2683240134341F28832E36093
:1035900046F084F9034600287FF40BAFD5F8840782
:1035A0004FF4007341F2101841F288328360102109
:1035B000C368334043EA0803C36046F06FF900284C
:1035C00040F0E180D5F88407D5F8E84943699F01C8
:1035D00000F19080402741F2883210218760C36853
:1035E000334043EA0803C36046F058F90346002815
:1035F0004DD1D5F8C83741F28832D5F88407372144
:103600001B048360C3681E4041F237133343C36019
:1036100046F044F90346002839D1D5F884074FF025
:10362000FF324262876201331F2BFCD9C36A00223A
:103630000D2123F0FF0343F06303C36282606D4AF0
:10364000C3681A4041F20D13134341F28832C3603C
:1036500046F024F90346D0B9D5F884070AAB05E053
:10366000D5F8E829121B013200F04581426B12F4B3
:10367000957F426B40F042811604F1D503F12001A1
:10368000D0F8802043F8042B8B42F9D1E8E7D5F835
:10369000B827D5F88407C5F8B827574901228163B0
:1036A000D5F8B8170B434FF40071C5F8B83741F29D
:1036B000101385F8B42781604E4AC1680A40102172
:1036C000134341F28832C36046F0E8F840B1D5F8C0
:1036D0008427012348499163C5F8B80785F8B437B2
:1036E0002A2210461BB0BDE8F08F04234FF0805013
:1036F000A36370E44FF40063CFE74FF0806358E6B4
:1037000058460FF063F920B195F89F2A0E21FFF774
:10371000D3F850460FF05AF920B195F8A12A0E219E
:10372000FFF7CAF848460FF051F900283FF4E9AC1A
:1037300095F8A32A0E21FFF7BFF8E2E4012815D17E
:103740001B04D5F8E8274FF4007103F47C13C5F887
:10375000D01743EA1243C5F8D8170E930E9B0133D6
:103760009B02C5F8CC37C5F8D437BBE6224A4FF0E8
:1037700080530121A263D5F8B8271A43C5F8B827AA
:1037800085F8B41715E6D5F884371B4A9A632A22C0
:10379000D5F8B8371843C5F8B80785F8B47723E4E7
:1037A000164B836361E5164BD3F8DC2022F40072DC
:1037B000C3F8DC20D3F8842042F40072C3F88420DC
:1037C000D3F8842022F40072C3F88420D3F8DC20DC
:1037D00042F40072C3F8DC20D3F8DC3003F4007349
:1037E0000293029B5CE4402383632BE54FF08070DF
:1037F000FFF7F1BBC0E0FEFFFF0FE01FC500200098
:1038000000440258636B590700F13682636B13F072
:10381000010340F02D822369DBB2032B40F02582A7
:10382000B54BA363636913F4604F0AD05A0400F1E7
:10383000398213F4004F14BF4FF480534FF4803398
:10384000B7E51B0CAD4941F209321804C5F8C83779
:10385000A0602046E36819400A43E26046F0B8F8E9
:10386000034600287FF4A5ADD5F88447626904F1CA
:103870001801C5F8E027A369C5F8E437E069C5F881
:10388000E807266AD5F8BC07C5F8EC67BAE5012356
:103890008363FFF7E9BB1968890640F1DE81186888
:1038A00007EE102A96491B6BC0F3C102B8EEC75A47
:1038B000DFED945AC3F30803D140B7EE007A06EE69
:1038C000903A06EE101AF8EEE66AB8EEC66A76EEA0
:1038D000876A86EE057AE7EEA56A27EE267A52E435
:1038E00007EE102A9FED885AF8EEC76A38E40423E1
:1038F0008363FFF7B9BB4FF00043CEE6110700F139
:10390000C581426B920700F1C581426B970609D5CC
:10391000BEE1D0F88010D5F8E82943F8041B121B4B
:103920000132E8D0426BD604F3D4784B83630A9B10
:10393000C3F381128DF81420C3F340128DF81520C3
:103940001A0A22F0FF0242EA1362DDE90B1392B277
:1039500009BAADF81620DAB206918DF81C20C3F32F
:1039600007229DF83B108DF81D20C3F303521B0C5A
:103970008DF81E200D9A23F0FF03D4B22343ADF837
:103980002030C2F385238DF82230C2F301238DF855
:103990002330C2F3031302F00F028DF824304FF4EA
:1039A00000738DF825208DF8261010218360534A6E
:1039B000C3681A4041F21013134341F28832C360C6
:1039C00045F06CFF00287FF482AED5F8BC179DF857
:1039D000243001299DF82520DBB2D2B236D0032352
:1039E000D5F89047C5F8DC07994285F8B4373BD144
:1039F000D5F8B827D5F8843742F08052C5F8B827F3
:103A0000D5F8B827002A42D041494FF400723B480C
:103A1000996341F210119A60DA68104041F28832DD
:103A200001431846D960102145F038FF002800F006
:103A3000E480D5F88437012235499963D5F8B83741
:103A40001843C5F8B80785F8B42749E61343D5F8F5
:103A500090474FF0030214BF4FF400734FF480738C
:103A600085F8B427C5F8DC37B4F5004FC0D0B4F5FD
:103A7000804F00F0C680002C00F08880D5F8B82771
:103A8000D5F8843742F00062C5F8B827B8E7D5F812
:103A90009807D5F888270328D5F88C67D5F89417A8
:103AA00009D8D5F8DC77B7F5007F04D0B7F5807F6B
:103AB0000CBF0220042032430A43164922435C68AB
:103AC00021400A434FF40071024341F210105A6042
:103AD00099600A4AD9680A401021104341F288329D
:103AE000D860184645F0DAFE0028A2D1012385F8F7
:103AF000B437D5F8E84914E0C5002000C0E0FEFF67
:103B00000090D003000000390024F44A3A0F001856
:103B1000FF0FE01F002CC0FFD5F8E8391B1B013355
:103B20002AD04CF00BFF0428F6D100220121D5F851
:103B3000BC37C5F8B827C5F8B02785F8B417A3B1C6
:103B40008B427FF4CDAD0223584C85F8803304F5C9
:103B50009D630FCB84E80F0004F59F6310340FCBF7
:103B600084E80F000022FFF73FBAD5F8C037002BDA
:103B7000EAD0012BE8D0B3E54FF0004101232A221F
:103B8000C5F8B81785F8B437FFF72EBAD5F88437DB
:103B9000CDE90A445A6992015CD40AA84CF0F0FEBF
:103BA00018BB0B9BDB036CD5D5F8C8373721D5F88C
:103BB00084071B043E4E836041F23713C2683240D3
:103BC000134341F28832C36045F068FE68B9D5F806
:103BD00084078460C26841F2061306213240134311
:103BE00041F28832C36045F059FED5F88437D5F8E4
:103BF000B8271043C5F8B80702E7012385F8B437A2
:103C00006EE50022D5F88437CDE90A225A69900181
:103C100020D40AA84CF0B4FE0028E6D10B9B59032F
:103C20002FD5D5F8C8373721D5F884071B04204E87
:103C3000836041F23713C2683240134341F2883245
:103C4000C36045F02BFE0028CFD1D5F884070223AE
:103C50008360BFE74FF40060C9E707EE102A9FEDCD
:103C6000155AF8EEC76AFFF77BBA0123FFF7A1BB2D
:103C70000122A263FFF79DBB04221346A263FFF754
:103C800098BBD5F884374FF08060B0E7082304E58F
:103C9000202302E5022300E5D5F8E027D5F8E43734
:103CA000FFF7B0BB4FF40053FFF783BB001D0024A8
:103CB000C0E0FEFF0024744C10B51A4C94F8A83AEA
:103CC0007BB1194B93F87C0350B194F8A8330133BE
:103CD000DBB2072B84F8A8330CD9002384F8B43363
:103CE00010BD012384F8A83AFFF70AF90E4B83F8B8
:103CF0007C03E9E7D4F8E43343B1196894F8E1238D
:103D00009B8809690B404AB1002BE6D1D4F888237F
:103D10000123C4F8A42384F8B43310BD002BDCD0F5
:103D2000F4E700BF081A002400000024F8B5974CFF
:103D300094F8E053002D00F0FF8094F8B42302269D
:103D4000531E082B3CD8DFE803F03234A43B674A0B
:103D5000163B0500FDF71AF9002840F0FE80D4F864
:103D6000A433D4F88823FA33934226D2FFF7A4FF72
:103D700094F8B423E4E7FDF709F90028EFD0D4F86C
:103D8000B0230023012A84F8A83340F2EA80D4F853
:103D9000AC13013A0131C4E9EB1294F882240AB160
:103DA000C4F800380823054684F8B43315E084F8D5
:103DB000B463FDF7EBF800284CD194F8B423531EFC
:103DC000DBB2022B00F2B080D4F88833D4F8A423FD
:103DD0009B1AC82B00F2B48000252846F8BDD4F801
:103DE0001C33002BF8D10722D4F88833D4F89C5325
:103DF00084F8B423C4F8A433002DEED0D4F8A03353
:103E00000120D4E9E421A847D7E7D4F8A433D4F8B3
:103E1000882364339342DFD2D4F81873002FF4D18F
:103E2000FDF7B4F80028A3D00423D4F89C5384F8F9
:103E3000A87384F8B433002D00F08D80D4F8A0333B
:103E40003846D4F89023D4F89413A84794F8B423B0
:103E5000531EB5E7FCF76EFA0028AED194F8803314
:103E6000002BA3F10203B3FA83F314BF0222012251
:103E70005B0984F8A92384F8AA33FCF75BFA0028CD
:103E80007FF474AFD4F870230323C4F8B82384F804
:103E9000B433FCF74FFA00288FD194F8545304221E
:103EA000B4F85613D4F85833C4F8B003A4F8BC13CC
:103EB000180ED4F85813D4F85833090C84F8BF03FB
:103EC0001B0A84F8BE5384F8C01384F8C133D4F8B5
:103ED000581394F85C0394F85D3384F8C213D3400C
:103EE00094F85D1384F8C30384F8C83301F00F011C
:103EF000D4F86033B4F86603C4F8C433B4F8663356
:103F000084F8C913C3F30B13B4F8661384F8B4230D
:103F100043EA102301F00F0103F00F0384F8CC13E0
:103F200003F5FA63A4F8CA33082A18BF042A0CBFA1
:103F3000012500252846F8BD284684F8B453F8BD6D
:103F4000FFF7BAFE94F8B453082D18BF042D0CBF28
:103F50000125002541E705463FE7042384F8B433F3
:103F60003BE7FAD194F88224C4F8B0330AB1C4F81C
:103F70000038FDF70BF80028EFD10922D4F8883378
:103F8000054684F8B423C4F8A43326E7081A0024AD
:103F90002DE9F0435E4C0D4683B0064694F8B41309
:103FA00090461F46042914D0082956D1D4F8AC33C2
:103FB00083420ED0002394F88224C4F8B0330AB1AF
:103FC000C4F80038FCF7E2FF00284AD0042384F844
:103FD000B433D4F80038C3F34F205A0A0F28C4E989
:103FE000E45604D8D4F8B093B9F1000F44D10120BD
:103FF0000622012384F8B423EA0684F89833C4F82F
:104000001C332B46C4E9E78766D14102BFF34F8FCB
:1040100039B105EB010C3F49C1F8683220336345E3
:10402000FAD1BFF34F8FBFF36F8F002D62D094F89A
:10403000B437012B50D10023D4F8D427C4F8B837B3
:104040003318934242D80246314628464CF014FCBD
:10405000002841D103B0BDE8F083012003B0BDE8E2
:10406000F0830922D4F88833012084F8B423C4F8FB
:10407000A43303B0BDE8F08394F882140029B6D0CD
:10408000B3F5005F3DD024484FF4007229460193F8
:10409000184453F063FD019B03F50073C3F34F20F5
:1040A0005A0AC4F8003810282BD0B9F1010F28D0D3
:1040B000D4F8AC2309F1FF33042102200132C4F803
:1040C000B03384F8B413C4F8AC23C7E7D4F8B837D6
:1040D00043F00073C4F8B837FFF7EEFDD4F89C53F3
:1040E000A5B10120D4F8A0330022D4F89413A84736
:1040F0000320B3E7D4F8B83743F00063C4F8B83707
:10410000EAE793B2044D013BF61A71E70320A5E7F5
:10411000081A002400ED00E00C3100242DE9F843DA
:104120003A4C0D460646904694F8B4139946042935
:1041300010D0082902D00020BDE8F883002394F8AD
:104140008224C4F8B033BABBFCF720FFD0B30423F9
:1041500084F8B43315F01F0243D10123C4F8145876
:10416000C4F81833C4F81C384FF40073C4F8183876
:10417000002D44D094F8B437012BDFB231D1731C39
:10418000C4F8B827D4F8D427934224D83A46314605
:1041900028464CF00FFB20BB0522D4F88833384664
:1041A000C4F89053C4F8946384F8B423C4F8A433D7
:1041B000C4E9E789BDE8F883C4F80038FCF7E6FEF7
:1041C0000028C4D10922D4F8883384F8B423C4F871
:1041D000A433BDE8F883D4F8B83743F00073C4F8CB
:1041E000B837FFF769FDD4F89C53002DA3D0002207
:1041F000D4F8A033D4F894131046A8479BE7D4F81A
:10420000B83743F00063C4F8B837EAE7081A002467
:1042100010B503791F4C002B14BF0122002284F833
:10422000E0232BD094F8953AD4F8E423003B18BF50
:10423000012384F8823492B111689388096994F853
:10424000E1230B404AB953B994F8A8330022013353
:1042500084F8B42384F8A83310BD002BF4D194F86B
:10426000A83A73B10C4B93F87C030028ECD1D4F836
:104270008823012384F8A803C4F8A42384F8B43362
:1042800010BD012384F8A83AFEF73AFE024B83F8EA
:104290007C03EAE7081A00240000002410B5214C32
:1042A00094F8AD0A0EF092FB28B11F210022C180C4
:1042B0002021FEF701FBD4F804383BB194F8101824
:1042C0001A68C9079B8848BF1B04936194F9972A11
:1042D00000210320FEF7C6F950B1D4F8E4335BB1F6
:1042E000196894F8E1239B8809690B4012B91BB93E
:1042F000012010BD002BFBD194F8A83A4BB10A4B1A
:1043000093F87C030028F3D1D4F88833C4F88C33B5
:1043100010BD012384F8A83AFEF7F2FD024B83F8A2
:104320007C03EFE7081A00240000002470B503792D
:104330008AB02E4C002B14BF0122002284F8E02307
:1043400003D184F8B4330AB070BD04F57A7605461B
:1043500090F9001030460DF0ABFFAD78002D37D14D
:104360000122234B234884F8F423C4F87C34C4F896
:10437000F0530DF08FFF03464FF47A70A4F8EC333E
:1043800010F0C8FDD4F8F03313B11A689B8893611C
:10439000194DEC460FCDACE80F000FCDACE80F0087
:1043A00095E803008CE80300694630460DF05CFD9B
:1043B000D4F8E823136A002BFCD1D4F88813012227
:1043C00084F8A833C4F8A41384F8B4230AB070BDE9
:1043D00028460EF0FBFA05460028C1D01E23002215
:1043E0000D21C380FEF768FABAE700BF081A00245F
:1043F000981D0024801A060098810908014B43F893
:10440000201070475040005819481A4B01681A4A4A
:1044100041F4807130B4016082B0D3F8F410FF240D
:10442000CA2041F48031C3F8F410D3F8F41001F439
:10443000803101915321019D546250625162D3F841
:10444000D030DB010CD40D4B00210D4A43F8041B86
:104450009342FBD1084B0B4A1A6502B030BC70473F
:10446000126D084B9A42EED102B030BC704700BFCB
:104470000048025800440258004000585440005878
:104480006C40005831666542F0B50446D0F85C01D6
:10449000454B83B0A16804F5967204F1E0070E68FD
:1044A000C1B220F0FF0001921039A3FB01310909CC
:1044B0004EF022FAD4F81C110023019A012984F845
:1044C000203118D0042916D0102958D0402912D0F4
:1044D000B1F5807F56D0B1F5806F53D0B1F5805FD4
:1044E00058D0B1F5803F4FF03C030CBF6FF0080C83
:1044F0006FF4006C01E06FF0080C06F1180530460F
:10450000E95801EA0C01E950D4F81C114DF0A6FF5E
:10451000D4F81C31012B16D0042B14D0102B0FD043
:10452000402B10D0B3F5807F30D0B3F5806F2DD005
:10453000B3F5805F32D0B3F5803F06F1540502D069
:104540004FF4006100E008212B683A46D4F85C0182
:104550000B4340212B60C4F8E810C1B2124B20F08D
:10456000FF001039A3FB013109094EF075F9D4F8A9
:104570005C21136843F01003136003B0F0BD6FF4C7
:10458000006CBAE76FF0080C0423B6E706F11C05CF
:104590000821D9E76FF4006C0423AEE706F11C058F
:1045A0004FF40061D0E700BFABAAAAAA2DE9F04FF3
:1045B000DFF848B185B09BF8004024B901242046BB
:1045C00005B0BDE8F08F474BD3F888530EF0AAFD35
:1045D000454A92F8B83B002B00F0BC81434B02F5F2
:1045E000C4770BF5A7640026A3FB0513404D5B09B8
:1045F000A5FB0315ED0805EB8505A3EB4505D2F8F2
:104600007C3BC31A0193EBB207EB8505029302F1E1
:1046100080030093019A002A04DBD4F824319342EA
:1046200000F37C814FF4B47303FB06B393F8583660
:10463000002B00F0C080D4F85C11A3682D481A68E4
:10464000CBB221F0FF01103BA0FB03032A481B095A
:10465000C35C19444B68A1891FFA83FED368CEF16D
:10466000160E23EA0103BEF1070FD36040F2A380C8
:104670001D4A0121D2F888308A460133C2F88830B9
:104680000022D4F8643190469C4603935CF8049B66
:1046900048461DE0DCF80090B8F1140FA9EB0003C8
:1046A00048462DDC13F1080948BF03F117094FEA0A
:1046B000291308EB291803F1FF39013102FA03F33A
:1046C0000CF1040C0AFA09F28E4542EA030217D3F0
:1046D0008E45DFD8C8F11503DCF800004FF015084F
:1046E000E9E700BF081A0024FC1000201F85EB51E9
:1046F000CDCCCCCCABAAAAAA34F609080400002081
:10470000B8F1150F40F000819649C2F38423C2F33B
:10471000441001EB830301EB8000D3F89032D0F812
:1047200090021B0243EA001302F01F00C2F3C432DE
:1047300001EB800001EB8202D0F89012D2F89022B7
:104740000B4343EA023383EA132282EA121202F095
:104750000F020F2A40F0D880C3F30F134FF6FF72F9
:10476000934200F0D180B3F5606F00F0DC80009AD6
:10477000938197F85820029882420CD0A9683A6831
:10478000521A3A607A68296B521A7A600022AA603B
:104790002A6387F858003A6801323A60AA68013201
:1047A000AA604FF6FF72934205D17B6801337B60AC
:1047B0002B6B01332B63009B204601365C3714338F
:1047C0005C3504F5B4740093FFF75EFE664B93F816
:1047D000B83BB3423FF71EAF63480121002280F887
:1047E0008611C0F87C2B002B3FF4E8AE9BF8102616
:1047F000DBF8540612F0020FDBF8402511680A6A54
:104800000CBF024342EA8002012B0A623FF4D6AE9B
:104810009BF87827DBF8BC0712F0020FDBF8A8261C
:1048200011680A6A0CBF024342EA8002022B0A6244
:104830003FF4C4AE9BF8E028DBF8240912F0020F25
:10484000DBF8102811680A6A0CBF024342EA8002B2
:10485000032B0A623FF4B2AE9BF8482ADBF88C0ABD
:1048600012F0020FDBF8782911680A6A0CBF0243C4
:1048700042EA8002042B0A623FF4A0AE9BF8B02B00
:10488000DBF8F40B12F0020FDBF8E02A11680A6A79
:104890000CBF024342EA8002052B0A623FF48EAE4F
:1048A0009BF8182DDBF85C0D12F0020FDBF8482C9A
:1048B00011680A6A0CBF024342EA8002062B0A62B0
:1048C0003FF47CAE9BF8802EDBF8C40E12F0020F92
:1048D000DBF8B02D11680A6A0CBF024342EA80027D
:1048E000082B0A627FF46AAE9BF8E83FDBF8182FCA
:1048F00013F0020F1D4B1268D96A136A14BF43EA02
:1049000081030B43136259E6174AD2F8843001330E
:10491000C2F88430B6B14FF6FF732AE70024204670
:1049200005B0BDE8F08F12494A7802EB420201EB74
:10493000C2023244527C0D2A7FF419AF80220099C2
:104940008A7716E7039958220A4853F007F94FF679
:10495000FF730EE704490122C1F87C3B81F88621F0
:104960002DE600BF307F0908FC1000200410002055
:10497000081A002428120020474B93F8982A013A7D
:1049800052B2511C00F086804449500101EB4212A2
:1049900000B5C3F8902A821D11F802E001EB020C69
:1049A00093F8B42A964561D09CF802E096455BD016
:1049B00000F10A0211F802E001EB020C93F8B52AAB
:1049C00096454CD09CF802E0964546D000F10E0288
:1049D00011F802E001EB020C93F8B62A964537D0A5
:1049E0009CF802E0964531D093F8962A62B300F124
:1049F000120211F802E001EB020C93F8B72A964577
:104A000039D09CF802E0964508BF0CF1020C32D078
:104A100000F1160211F802E001EB020C93F8B82A3B
:104A2000964532D09CF802E0964508BF0CF1020C86
:104A30002BD01A3093F8B92A11F800C008449445D5
:104A40001FD0817891421BD05DF804FB0CF1020C61
:104A5000BCF80020A3F89C2AC6E70CF1020CBCF8B5
:104A60000020A3F8A62AB1E70CF1020CBCF8002044
:104A7000A3F8A42A9CE7BCF80020A3F89E2AC7E765
:104A800002300288A3F8A22ADEE7BCF80020A3F8CF
:104A9000A02ACEE7704700BF081A00244082090808
:104AA000012070474BF09CBC4BF09ABC2DE9F047BD
:104AB000344C94F8A40A0DF089FF054694F8A60A30
:104AC0000DF084FF064694F89C0A0DF07FFF94F8E1
:104AD000968A074694F8A0AA94F89E0A94F8A24AE7
:104AE0000DB11823EB800EB11923F3800FB11A23F7
:104AF000FB80B8F1000F15D138460121FDF710FAFF
:104B0000FEF780F828460121FDF70AFA3046FDF746
:104B100007FA2846FEF776F830460121BDE8F0474F
:104B2000FEF770B80DF052FF814608B11B23C38019
:104B300050460DF04BFF804608B11C23C380204631
:104B40000DF044FF044608B11D23C38038460121FF
:104B5000FDF7E6F9FEF756F84846FDF7E1F940465D
:104B6000FDF7DEF92046FDF7DBF901214846FEF7A7
:104B700049F840460121FEF745F801212046FEF79D
:104B800041F8BFE7081A0024D0F850112422F8B5E4
:104B9000C0F8D02104460A680023806804F5A8758F
:104BA00022F001020A600B604B608B6094F805C034
:104BB000C4F8D83184F8CC31C4F8D031C4F86831A5
:104BC000C4F8D431C4F87031C4F864314FEA8C238E
:104BD000B44A03F48053C4F854019142C4F85831E4
:104BE0004FEA0C3303F40053C4F85C314FEA0C2352
:104BF00003F48063C4F8603100F0AE81237913F0D0
:104C0000010002D00422C4F8642113F0020305D08D
:104C1000D4F8642142F00802C4F864211CF0010FAA
:104C20000DD048B1D4F8782142F00202C4F87821BE
:104C30004FF48032C4F88021002B40F081819A4BE0
:104C400003F12C0053F8042B944200F03F8198426A
:104C5000F8D11CF0080F40F04F81D4F8D031002B70
:104C600000F0988124232846C4F8D0310B6823F043
:104C700001030B6044F0E0FA012815D0D4F8783134
:104C8000002B40F08D81D4F8503128465A6822F428
:104C900090425A609A6822F02A029A601A6842F09A
:104CA00001021A604DF026FF2379DA076DD5D4F89A
:104CB0002C21002A00F05B810023D4F8341104F188
:104CC0003C06E2634FF48062C4F8B8103046E264F8
:104CD000C4E91133C4E91433C4E91833C4E91A33FD
:104CE0004FF48033E3654FF48073A3654EF03AFCD4
:104CF000304642F00BFCD4F8D431C4F8C861202B04
:104D000065673DD1E368626999B2CAB3B1FA81F0CF
:104D10004009A9B394F8CCC1BCF1010F30D02227CF
:104D2000C4F8D80194F870C0C4F8D4715F4FA4F8E7
:104D3000AC110121A7675E4F8C45C4F8A821E76735
:104D40005C4FC4F88C0084F8CC11C4F888700ED085
:104D500094F8717084F87010012FD4F8501100F09D
:104D600027814FF4006384F87000C4F8903010215C
:104D700000222023C4F8D81184F8CC21C4F8D03103
:104D8000E26B23795268C4F844219B0740F1888084
:104D9000D4F83021002A00F0E3800023D4F8381141
:104DA00004F1B406C4F8B420C4F8C0304022C4F8FA
:104DB000D0303046C4E93233C4E93633C4E938333D
:104DC0004FF48033C4F8D4304FF48063C4E92E121A
:104DD000C4F8C4304EF0C6FB304642F097FB0028C2
:104DE00040F0B980D4F8B420334B3448344982427F
:104DF00018BF9A42C4F8C461C4F8EC5000F16000D6
:104E00000CBF012300232F4C8A4208BF43F001034B
:104E10003031A24208BF43F0010360348A4208BF28
:104E200043F001033031824208BF43F0010300F533
:104E300068708A4208BF43F0010301F55C71A24229
:104E400008BF43F0010304F568748A4208BF43F0C9
:104E500001033031824208BF43F0010360308A42CF
:104E600008BF43F001033031A24208BF43F0010301
:104E70008A4208BF43F001033031824208BF43F049
:104E800001038A4208BF43F001033BB90E4BD31A1A
:104E9000B3FA83F35B09002B00F0A3800023536077
:104EA000F8BD00BF000C0058BC1C0020954008084D
:104EB000C9400808CD400808100002402800024000
:104EC0004000024058000240B8040240002C3FF469
:104ED000C0AE94F8F431002B3FF4BBAED4F8783177
:104EE0001CF0080F43F00803C4F878314FF4004376
:104EF000C4F888313FF4B1AED4F8D031002B4CD097
:104F000024232846C4F8D0310B6823F001030B603A
:104F100044F092F901283FF4C7AED4F87831002B61
:104F200042D1D4F8503128465A6822F490425A604F
:104F30009A6822F022029A609A6842F00802ACE66F
:104F4000D4F8783143F00103C4F878314FF40033DA
:104F5000C4F87C3173E6FEE70423C4F874314DE6EF
:104F6000D4F8DC21136843F080031360F8BDD4F853
:104F7000DC21116841F480711160916841F00101F8
:104F80009160116841F020011160116841F0100139
:104F90001160FAE684F8CC3164E684F8CC31AFE7EE
:104FA000284644F023FC6EE6284644F01FFCB8E790
:104FB0009BB22431304642F0C9FC00287FF4D7AEC2
:104FC000D4F8503184F8CC011A6842F480721A6027
:104FD0009A6842F001029A609A6842F040029A6030
:104FE000CEE65360F8BD00BFF8B50446EFF3118577
:104FF000502383F31288D0F830311B6803F001038B
:105000001BB1EDB285F31188F8BDD0F8D021D0F8EE
:10501000D4110A4302F02102212AF2D0D0E9092159
:105020008A424FD04BD800691A46431A9BB2A262FB
:10503000002284F8E021D4F8D021202AE1D1A2690D
:105040005118DED0B3FA83F25209002BD9D094F86C
:10505000CC010128D5D02120A4F8A6314FF0010CB5
:10506000C4F8D821C4F8D001D4F8C401C4F8A01100
:10507000A4F8A43184F8CCC170B31D4E90F834E08C
:10508000C6631C4EE645026506641B4EC6640CD022
:1050900090F83560D4F85071664580F834C015D06A
:1050A0004FF4006380F83420436510210022202350
:1050B000C4F8D81184F8CC21C4F8D031A1E7531A30
:1050C0009BB2B4E7012380F8E0319AE707F12802A8
:1050D00042F03CFC0028E8D1D4F8503100224021B5
:1050E000196284F8CC219A6842F080029A6088E7BD
:1050F0006D40080891400808CD4008082DE9F843A4
:10510000404C04EB8004D4F8C04B002C3DD0D4F8C4
:10511000E4511F463C4B0646A16020462360904662
:105120006B68C4F8DC31AB6B63616B6BA361EB8FB5
:10513000E360AB8F23610DF0B3FD6B68A88DC4F8FD
:10514000503100285AD194F8EA010DF03FFC3A079B
:10515000034694F8E8911BD538B317F0510F4FF080
:105160000B0206F1010614BF0A211A2117F0410FA4
:10517000C671827114BF4023202394F8EB21194398
:10518000FDF79AFBD4F82C3123B32046BDE8F88311
:1051900018F0020F09D040B10B2202218271721C5B
:1051A000C27194F8EB21FDF787FB48460DF00EFC29
:1051B0000028E7D018F0010FE4D00C2201360221BC
:1051C000C671827194F8E921FDF776FBD4F82C3191
:1051D000002BDAD195F8321095F8300089094BF0A0
:1051E000C7FF95F830300122084903F01F005B0922
:1051F0008240204641F82320BDE8F8834CF058F85F
:10520000A1E700BFFC1000208082090800E100E057
:10521000BFF34F8F0549064BCA6802F4E06213439F
:10522000CB60BFF34F8F00BFFDE700BF00ED00E094
:105230000400FA0519484FF6FF0C194A84B0C168FA
:10524000184B01EA0C010A43C260D3F8D020D3F80E
:10525000DC2042F00052C3F8DC20D3F8DC2002F05E
:1052600000520192019AD3F8DC2042F08042C3F848
:10527000DC20D3F8DC2002F080420292029AD3F8BC
:10528000DC2042F00042C3F8DC20D3F8DC3003F02D
:1052900000430393039B04B00DF0F8BE00ED00E063
:1052A0000005FA050044025808B51D480023C0F85F
:1052B0008430BFF34F8F436923F480334361BFF3DE
:1052C0004F8FD0F8803043F6E074C3F34E3CC3F305
:1052D000C90E4FEA4C1C0CEA0401734641EA837282
:1052E000013BC0F874225A1CF8D1ACF1200C1CF11F
:1052F000200FF0D1BFF34F8FBFF36F8FBFF34F8FEE
:10530000BFF36F8F4369002223F400334361C0F879
:105310005022BFF34F8FBFF36F8F72B6FFF778FF46
:1053200000ED00E003689B0AA3F58013522B57D8C9
:1053300070B53E4C14F803C0BCF10D0F4FD8407946
:105340008508002951D04FEA900E4C2438480CEBC8
:105350008C0304FB0C040CEB4303D4F8BC6A02245A
:105360002B4404FA0EFEF46800EB83054EEA0404B5
:10537000A966AA67F460EFF31184502383F31288BF
:105380002C2303FB0CF3C1184A6E52B3131DC1F852
:105390008820284A2C21284D01FB0CF105EB010E39
:1053A00014310A4452F8041B19B1196052F8043C34
:1053B00004339645F6D10022E4B21A6084F31188D2
:1053C0002C2303FB0C03D3F888302BB34C2303FBB3
:1053D0000C00D0F8BC2AD36843F00103D36070BD41
:1053E0007047144A24331344D4E711484C23022451
:1053F00003FB0C0304FA05FED3F8BC6A0CEB8C0328
:10540000F4680CEB430324EA0E042B44F46000EB35
:105410008304A166A267AEE74C2303FB0C00D0F81F
:10542000BC2AD36823F00103D36070BD307F090824
:10543000081A00246C1A0024901A002403689B0A9E
:10544000A3F58013522B00D97047144AD35C0D2B5F
:10545000FAD84FF04C0C10B4114C79B941790222B2
:105460000CFB03405DF8044B21FA02F3D0F8BC1AA0
:105470009A40CB6823EA0203CB607047417902224D
:105480000CFB03405DF8044B21FA02F3D0F8BC1A80
:1054900002FA03F3CA681343CB607047307F0908F0
:1054A000081A002403689B0AA3F58013522B10D816
:1054B000084AD25C0D2A0CD84079022306494FF0E5
:1054C0004C0CD8400CFB02128340D2F8BC2ADB43C0
:1054D00013617047307F0908081A00240149024807
:1054E000FBF7F4BC6C1A002400000140014902489B
:1054F000FBF7ECBC6C1A00240000014002494FF09D
:105500008040FBF7E3BC00BF981A00240149024821
:10551000FBF7DCBCC41A0024000400400149024827
:10552000FBF7D4BCF01A00240008004001490248EF
:10553000FBF7CCBC1C1B0024000C00402DE9F843F9
:10554000194E3569F3681D4010D04FF00047DFF861
:105550005C80B5FA85F227FA02F31F2A6FEA03038B
:1055600005EA0305336103D0002DF2D1BDE8F883CD
:10557000D8F86831A3B103F1FF3900231FFA89F984
:10558000C8F86831D8F86441002CEDD02368204673
:10559000494698476468002CF8D1002DD9D1E5E739
:1055A000F16A1FFA81F9EDE700100040081A0024A3
:1055B00001490248FBF78ABCA01B002400040140FB
:1055C00010B5064C064804F5CC71FBF77FFC04F5DA
:1055D000F8710448BDE81040FBF778BC081A0024B5
:1055E00000040140001C004001490248FBF76EBC6A
:1055F000CC1B00240018004001490248FBF766BCA0
:10560000241C00240020004001490248FBF75EBC36
:10561000501C00240040014001490248FBF756BCE1
:105620007C1C00240044014001490248FBF74EBCA9
:10563000A81C0024004801402DE9F0474FF42572D2
:105640008EB000218A4852F0FDFA8A4B8A4F4FF003
:105650008041D3F8F02007F12004B94642F001025E
:1056600007F53065A246DFF81882C3F8F02007F589
:105670002E66D3F8F02002F001020092009AD3F8CF
:10568000E82042F00102C3F8E820D3F8E82002F055
:1056900001020192019AD3F8E82042F00202C3F815
:1056A000E820D3F8E82002F002020292029AD3F82E
:1056B000E82042F00402C3F8E820D3F8E82002F022
:1056C00004020392039AD3F8E82042F00802C3F8D8
:1056D000E820D3F8E82002F008020492049AD3F8F4
:1056E000E82042F01002C3F8E820D3F8E82002F0E6
:1056F00010020592059AD3F8E82042F02002C3F880
:10570000E820D3F8E82002F020020692069AD3F8A7
:10571000F02042F00202C3F8F020D3F8F02002F0AB
:1057200002020792079AD3F8E82042F04002C3F839
:10573000E820D3F8E82002F040020892089AD3F853
:10574000E82042F08002C3F8E820D3F8E82002F015
:1057500080020992099AD3F8E82042F48072C3F8D3
:10576000E820D3F8E82002F480720A920A9AD3F86B
:10577000F02042F48032C3F8F020D3F8F02002F495
:1057800080320B920B9AD3F8F02042F40032C3F827
:10579000F020D3F8F02002F400320C920C9AD3F8E7
:1057A000F02042F48022C3F8F020D3F8F03003F464
:1057B00080230D930D9B4246002301E056F83320D1
:1057C0008A420CD00133112BF8D10AF1200A0020B3
:1057D0004BF06EFD55450DD05AF8201CEBE7274ADB
:1057E0000AF1200A02EBC303B3F8640E4BF060FD2C
:1057F0005545F1D107F52E6709F120094F4512D023
:1058000099F80630002BF7D099F804000DF0DEF877
:1058100002210028F0D099F8082009F12009FDF7AD
:105820004BF84F45ECD14FF08041154F154E3A469D
:10583000002301E056F833208A420BD00133112BAC
